{
  "address": "0xEA04d61cB5D32f3FE49dEF911B0baC1e3F5ed013",
  "abi": [
    {
      "inputs": [
        {
          "internalType": "address",
          "name": "priceFeedAddress",
          "type": "address"
        }
      ],
      "stateMutability": "nonpayable",
      "type": "constructor"
    },
    {
      "inputs": [],
      "name": "FundMe__LessEthSent",
      "type": "error"
    },
    {
      "inputs": [],
      "name": "FundMe__NotOwner",
      "type": "error"
    },
    {
      "stateMutability": "payable",
      "type": "fallback"
    },
    {
      "inputs": [],
      "name": "MINIMUM_USD",
      "outputs": [
        {
          "internalType": "uint256",
          "name": "",
          "type": "uint256"
        }
      ],
      "stateMutability": "view",
      "type": "function"
    },
    {
      "inputs": [],
      "name": "cheaperWithdraw",
      "outputs": [],
      "stateMutability": "payable",
      "type": "function"
    },
    {
      "inputs": [],
      "name": "fund",
      "outputs": [],
      "stateMutability": "payable",
      "type": "function"
    },
    {
      "inputs": [
        {
          "internalType": "address",
          "name": "funder",
          "type": "address"
        }
      ],
      "name": "getAddressToAmountFunded",
      "outputs": [
        {
          "internalType": "uint256",
          "name": "",
          "type": "uint256"
        }
      ],
      "stateMutability": "view",
      "type": "function"
    },
    {
      "inputs": [
        {
          "internalType": "uint256",
          "name": "index",
          "type": "uint256"
        }
      ],
      "name": "getFunder",
      "outputs": [
        {
          "internalType": "address",
          "name": "",
          "type": "address"
        }
      ],
      "stateMutability": "view",
      "type": "function"
    },
    {
      "inputs": [],
      "name": "getFunders",
      "outputs": [
        {
          "internalType": "address[]",
          "name": "",
          "type": "address[]"
        }
      ],
      "stateMutability": "view",
      "type": "function"
    },
    {
      "inputs": [],
      "name": "getNumberOfFunders",
      "outputs": [
        {
          "internalType": "uint256",
          "name": "",
          "type": "uint256"
        }
      ],
      "stateMutability": "view",
      "type": "function"
    },
    {
      "inputs": [],
      "name": "getOwner",
      "outputs": [
        {
          "internalType": "address",
          "name": "",
          "type": "address"
        }
      ],
      "stateMutability": "view",
      "type": "function"
    },
    {
      "inputs": [],
      "name": "getPriceFeed",
      "outputs": [
        {
          "internalType": "contract AggregatorV3Interface",
          "name": "",
          "type": "address"
        }
      ],
      "stateMutability": "view",
      "type": "function"
    },
    {
      "inputs": [],
      "name": "withdraw",
      "outputs": [],
      "stateMutability": "payable",
      "type": "function"
    },
    {
      "stateMutability": "payable",
      "type": "receive"
    }
  ],
  "transactionHash": "0x53373ee6703d4529a1d7dce67ceec899905450dfa562a1d9f7f4f64cf4acfa9c",
  "args": [
    "0x8A753747A1Fa494EC906cE90E9f37563A8AF630e"
  ],
  "numDeployments": 2,
  "solcInputHash": "5aac31272d0881468b2f24e874822110",
  "bytecode": "0x60a06040523480156200001157600080fd5b50604051620012c8380380620012c883398181016040528101906200003791906200011d565b3373ffffffffffffffffffffffffffffffffffffffff1660808173ffffffffffffffffffffffffffffffffffffffff168152505080600260006101000a81548173ffffffffffffffffffffffffffffffffffffffff021916908373ffffffffffffffffffffffffffffffffffffffff160217905550506200014f565b600080fd5b600073ffffffffffffffffffffffffffffffffffffffff82169050919050565b6000620000e582620000b8565b9050919050565b620000f781620000d8565b81146200010357600080fd5b50565b6000815190506200011781620000ec565b92915050565b600060208284031215620001365762000135620000b3565b5b6000620001468482850162000106565b91505092915050565b60805161114f62000179600039600081816103980152818161058101526105d1015261114f6000f3fe6080604052600436106100955760003560e01c8063b60d428811610059578063b60d428814610176578063be2693f014610180578063cce8c26a1461018a578063d7b4750c146101b5578063ea63a044146101f2576100a4565b80630343fb25146100ae5780633ccfd60b146100eb5780636b69a592146100f5578063893d20e8146101205780639e87a5cd1461014b576100a4565b366100a4576100a261021d565b005b6100ac61021d565b005b3480156100ba57600080fd5b506100d560048036038101906100d09190610ad6565b61034e565b6040516100e29190610b1c565b60405180910390f35b6100f3610396565b005b34801561010157600080fd5b5061010a610570565b6040516101179190610b1c565b60405180910390f35b34801561012c57600080fd5b5061013561057d565b6040516101429190610b46565b60405180910390f35b34801561015757600080fd5b506101606105a5565b60405161016d9190610bc0565b60405180910390f35b61017e61021d565b005b6101886105cf565b005b34801561019657600080fd5b5061019f61080d565b6040516101ac9190610b1c565b60405180910390f35b3480156101c157600080fd5b506101dc60048036038101906101d79190610c07565b61081a565b6040516101e99190610b46565b60405180910390f35b3480156101fe57600080fd5b50610207610862565b6040516102149190610cf2565b60405180910390f35b6802b5e3af16b188000061025c600260009054906101000a900473ffffffffffffffffffffffffffffffffffffffff16346108f090919063ffffffff16565b1015610294576040517fe18f8b4900000000000000000000000000000000000000000000000000000000815260040160405180910390fd5b346000803373ffffffffffffffffffffffffffffffffffffffff1673ffffffffffffffffffffffffffffffffffffffff16815260200190815260200160002060008282546102e29190610d43565b925050819055506001339080600181540180825580915050600190039060005260206000200160009091909190916101000a81548173ffffffffffffffffffffffffffffffffffffffff021916908373ffffffffffffffffffffffffffffffffffffffff160217905550565b60008060008373ffffffffffffffffffffffffffffffffffffffff1673ffffffffffffffffffffffffffffffffffffffff168152602001908152602001600020549050919050565b7f000000000000000000000000000000000000000000000000000000000000000073ffffffffffffffffffffffffffffffffffffffff163373ffffffffffffffffffffffffffffffffffffffff161461041b576040517f579610db00000000000000000000000000000000000000000000000000000000815260040160405180910390fd5b60005b6001805490508110156104c65760006001828154811061044157610440610d99565b5b9060005260206000200160009054906101000a900473ffffffffffffffffffffffffffffffffffffffff16905060008060008373ffffffffffffffffffffffffffffffffffffffff1673ffffffffffffffffffffffffffffffffffffffff168152602001908152602001600020819055505080806104be90610dc8565b91505061041e565b50600067ffffffffffffffff8111156104e2576104e1610e11565b5b6040519080825280602002602001820160405280156105105781602001602082028036833780820191505090505b50600190805190602001906105269291906109cc565b503373ffffffffffffffffffffffffffffffffffffffff166108fc479081150290604051600060405180830381858888f1935050505015801561056d573d6000803e3d6000fd5b50565b6802b5e3af16b188000081565b60007f0000000000000000000000000000000000000000000000000000000000000000905090565b6000600260009054906101000a900473ffffffffffffffffffffffffffffffffffffffff16905090565b7f000000000000000000000000000000000000000000000000000000000000000073ffffffffffffffffffffffffffffffffffffffff163373ffffffffffffffffffffffffffffffffffffffff1614610654576040517f579610db00000000000000000000000000000000000000000000000000000000815260040160405180910390fd5b600060018054806020026020016040519081016040528092919081815260200182805480156106d857602002820191906000526020600020905b8160009054906101000a900473ffffffffffffffffffffffffffffffffffffffff1673ffffffffffffffffffffffffffffffffffffffff168152602001906001019080831161068e575b5050505050905060005b8151811015610762576000828281518110610700576106ff610d99565b5b6020026020010151905060008060008373ffffffffffffffffffffffffffffffffffffffff1673ffffffffffffffffffffffffffffffffffffffff1681526020019081526020016000208190555050808061075a90610dc8565b9150506106e2565b50600067ffffffffffffffff81111561077e5761077d610e11565b5b6040519080825280602002602001820160405280156107ac5781602001602082028036833780820191505090505b50600190805190602001906107c29291906109cc565b503373ffffffffffffffffffffffffffffffffffffffff166108fc479081150290604051600060405180830381858888f19350505050158015610809573d6000803e3d6000fd5b5050565b6000600180549050905090565b6000600182815481106108305761082f610d99565b5b9060005260206000200160009054906101000a900473ffffffffffffffffffffffffffffffffffffffff169050919050565b606060018054806020026020016040519081016040528092919081815260200182805480156108e657602002820191906000526020600020905b8160009054906101000a900473ffffffffffffffffffffffffffffffffffffffff1673ffffffffffffffffffffffffffffffffffffffff168152602001906001019080831161089c575b5050505050905090565b6000806108fc8361092c565b90506000670de0b6b3a764000085836109159190610e40565b61091f9190610ec9565b9050809250505092915050565b6000808273ffffffffffffffffffffffffffffffffffffffff1663feaf968c6040518163ffffffff1660e01b815260040160a06040518083038186803b15801561097557600080fd5b505afa158015610989573d6000803e3d6000fd5b505050506040513d601f19601f820116820180604052508101906109ad9190610f87565b5050509150506402540be400816109c49190611002565b915050919050565b828054828255906000526020600020908101928215610a45579160200282015b82811115610a445782518260006101000a81548173ffffffffffffffffffffffffffffffffffffffff021916908373ffffffffffffffffffffffffffffffffffffffff160217905550916020019190600101906109ec565b5b509050610a529190610a56565b5090565b5b80821115610a6f576000816000905550600101610a57565b5090565b600080fd5b600073ffffffffffffffffffffffffffffffffffffffff82169050919050565b6000610aa382610a78565b9050919050565b610ab381610a98565b8114610abe57600080fd5b50565b600081359050610ad081610aaa565b92915050565b600060208284031215610aec57610aeb610a73565b5b6000610afa84828501610ac1565b91505092915050565b6000819050919050565b610b1681610b03565b82525050565b6000602082019050610b316000830184610b0d565b92915050565b610b4081610a98565b82525050565b6000602082019050610b5b6000830184610b37565b92915050565b6000819050919050565b6000610b86610b81610b7c84610a78565b610b61565b610a78565b9050919050565b6000610b9882610b6b565b9050919050565b6000610baa82610b8d565b9050919050565b610bba81610b9f565b82525050565b6000602082019050610bd56000830184610bb1565b92915050565b610be481610b03565b8114610bef57600080fd5b50565b600081359050610c0181610bdb565b92915050565b600060208284031215610c1d57610c1c610a73565b5b6000610c2b84828501610bf2565b91505092915050565b600081519050919050565b600082825260208201905092915050565b6000819050602082019050919050565b610c6981610a98565b82525050565b6000610c7b8383610c60565b60208301905092915050565b6000602082019050919050565b6000610c9f82610c34565b610ca98185610c3f565b9350610cb483610c50565b8060005b83811015610ce5578151610ccc8882610c6f565b9750610cd783610c87565b925050600181019050610cb8565b5085935050505092915050565b60006020820190508181036000830152610d0c8184610c94565b905092915050565b7f4e487b7100000000000000000000000000000000000000000000000000000000600052601160045260246000fd5b6000610d4e82610b03565b9150610d5983610b03565b9250827fffffffffffffffffffffffffffffffffffffffffffffffffffffffffffffffff03821115610d8e57610d8d610d14565b5b828201905092915050565b7f4e487b7100000000000000000000000000000000000000000000000000000000600052603260045260246000fd5b6000610dd382610b03565b91507fffffffffffffffffffffffffffffffffffffffffffffffffffffffffffffffff821415610e0657610e05610d14565b5b600182019050919050565b7f4e487b7100000000000000000000000000000000000000000000000000000000600052604160045260246000fd5b6000610e4b82610b03565b9150610e5683610b03565b9250817fffffffffffffffffffffffffffffffffffffffffffffffffffffffffffffffff0483118215151615610e8f57610e8e610d14565b5b828202905092915050565b7f4e487b7100000000000000000000000000000000000000000000000000000000600052601260045260246000fd5b6000610ed482610b03565b9150610edf83610b03565b925082610eef57610eee610e9a565b5b828204905092915050565b600069ffffffffffffffffffff82169050919050565b610f1981610efa565b8114610f2457600080fd5b50565b600081519050610f3681610f10565b92915050565b6000819050919050565b610f4f81610f3c565b8114610f5a57600080fd5b50565b600081519050610f6c81610f46565b92915050565b600081519050610f8181610bdb565b92915050565b600080600080600060a08688031215610fa357610fa2610a73565b5b6000610fb188828901610f27565b9550506020610fc288828901610f5d565b9450506040610fd388828901610f72565b9350506060610fe488828901610f72565b9250506080610ff588828901610f27565b9150509295509295909350565b600061100d82610f3c565b915061101883610f3c565b9250827f7fffffffffffffffffffffffffffffffffffffffffffffffffffffffffffffff048211600084136000841316161561105757611056610d14565b5b817f8000000000000000000000000000000000000000000000000000000000000000058312600084126000841316161561109457611093610d14565b5b827f800000000000000000000000000000000000000000000000000000000000000005821260008413600084121616156110d1576110d0610d14565b5b827f7fffffffffffffffffffffffffffffffffffffffffffffffffffffffffffffff058212600084126000841216161561110e5761110d610d14565b5b82820290509291505056fea2646970667358221220cab940db17aa374d9510115b9477596850127850c191a0086beff3731ea840ad64736f6c63430008090033",
  "devdoc": {
    "kind": "dev",
    "methods": {},
    "version": 1
  },
  "userdoc": {
    "kind": "user",
    "methods": {},
    "version": 1
  },
  "storageLayout": {
    "storage": [
      {
        "astId": 60,
        "contract": "contracts/FundMe.sol:FundMe",
        "label": "s_addressToAmountFunded",
        "offset": 0,
        "slot": "0",
        "type": "t_mapping(t_address,t_uint256)"
      },
      {
        "astId": 63,
        "contract": "contracts/FundMe.sol:FundMe",
        "label": "s_funders",
        "offset": 0,
        "slot": "1",
        "type": "t_array(t_address)dyn_storage"
      },
      {
        "astId": 75,
        "contract": "contracts/FundMe.sol:FundMe",
        "label": "s_priceFeed",
        "offset": 0,
        "slot": "2",
        "type": "t_contract(AggregatorV3Interface)45"
      }
    ],
    "types": {
      "t_address": {
        "encoding": "inplace",
        "label": "address",
        "numberOfBytes": "20"
      },
      "t_array(t_address)dyn_storage": {
        "base": "t_address",
        "encoding": "dynamic_array",
        "label": "address[]",
        "numberOfBytes": "32"
      },
      "t_contract(AggregatorV3Interface)45": {
        "encoding": "inplace",
        "label": "contract AggregatorV3Interface",
        "numberOfBytes": "20"
      },
      "t_mapping(t_address,t_uint256)": {
        "encoding": "mapping",
        "key": "t_address",
        "label": "mapping(address => uint256)",
        "numberOfBytes": "32",
        "value": "t_uint256"
      },
      "t_uint256": {
        "encoding": "inplace",
        "label": "uint256",
        "numberOfBytes": "32"
      }
    }
  }
}