{
  "address": "0xc759Bfef4878a6445b036DF08273019BF219CC59",
  "abi": [
    {
      "inputs": [
        {
          "internalType": "address",
          "name": "priceFeedAddress",
          "type": "address"
        }
      ],
      "stateMutability": "nonpayable",
      "type": "constructor"
    },
    {
      "inputs": [],
      "name": "NotOwner",
      "type": "error"
    },
    {
      "stateMutability": "payable",
      "type": "fallback"
    },
    {
      "inputs": [],
      "name": "MINIMUM_USD",
      "outputs": [
        {
          "internalType": "uint256",
          "name": "",
          "type": "uint256"
        }
      ],
      "stateMutability": "view",
      "type": "function"
    },
    {
      "inputs": [],
      "name": "fund",
      "outputs": [],
      "stateMutability": "payable",
      "type": "function"
    },
    {
      "inputs": [
        {
          "internalType": "uint256",
          "name": "",
          "type": "uint256"
        }
      ],
      "name": "funders",
      "outputs": [
        {
          "internalType": "address",
          "name": "",
          "type": "address"
        }
      ],
      "stateMutability": "view",
      "type": "function"
    },
    {
      "inputs": [],
      "name": "i_owner",
      "outputs": [
        {
          "internalType": "address",
          "name": "",
          "type": "address"
        }
      ],
      "stateMutability": "view",
      "type": "function"
    },
    {
      "inputs": [],
      "name": "priceFeed",
      "outputs": [
        {
          "internalType": "contract AggregatorV3Interface",
          "name": "",
          "type": "address"
        }
      ],
      "stateMutability": "view",
      "type": "function"
    },
    {
      "inputs": [],
      "name": "withdraw",
      "outputs": [],
      "stateMutability": "payable",
      "type": "function"
    },
    {
      "stateMutability": "payable",
      "type": "receive"
    }
  ],
  "transactionHash": "0x9a50b78270f159200a4dcfba6f0fe2f3cb3d4b8d29ac1b102be3632605362c4a",
  "args": [
    "0x8A753747A1Fa494EC906cE90E9f37563A8AF630e"
  ],
  "numDeployments": 1,
  "solcInputHash": "26eac01d23cb1e18635f375c1d577abb",
  "bytecode": "0x60a060405234801561001057600080fd5b50604051610df0380380610df083398181016040528101906100329190610110565b3373ffffffffffffffffffffffffffffffffffffffff1660808173ffffffffffffffffffffffffffffffffffffffff168152505080600260006101000a81548173ffffffffffffffffffffffffffffffffffffffff021916908373ffffffffffffffffffffffffffffffffffffffff1602179055505061013d565b600080fd5b600073ffffffffffffffffffffffffffffffffffffffff82169050919050565b60006100dd826100b2565b9050919050565b6100ed816100d2565b81146100f857600080fd5b50565b60008151905061010a816100e4565b92915050565b600060208284031215610126576101256100ad565b5b6000610134848285016100fb565b91505092915050565b608051610c9161015f60003960008181610280015261048d0152610c916000f3fe6080604052600436106100595760003560e01c80633ccfd60b146100725780636b69a5921461007c578063741bef1a146100a7578063b60d4288146100d2578063dba6335f146100dc578063dc0d3dff1461010757610068565b3661006857610066610144565b005b610070610144565b005b61007a61027e565b005b34801561008857600080fd5b50610091610458565b60405161009e919061068a565b60405180910390f35b3480156100b357600080fd5b506100bc610465565b6040516100c99190610724565b60405180910390f35b6100da610144565b005b3480156100e857600080fd5b506100f161048b565b6040516100fe9190610760565b60405180910390f35b34801561011357600080fd5b5061012e600480360381019061012991906107ac565b6104af565b60405161013b9190610760565b60405180910390f35b6802b5e3af16b1880000610183600260009054906101000a900473ffffffffffffffffffffffffffffffffffffffff16346104ee90919063ffffffff16565b10156101c4576040517f08c379a00000000000000000000000000000000000000000000000000000000081526004016101bb90610836565b60405180910390fd5b346000803373ffffffffffffffffffffffffffffffffffffffff1673ffffffffffffffffffffffffffffffffffffffff16815260200190815260200160002060008282546102129190610885565b925050819055506001339080600181540180825580915050600190039060005260206000200160009091909190916101000a81548173ffffffffffffffffffffffffffffffffffffffff021916908373ffffffffffffffffffffffffffffffffffffffff160217905550565b7f000000000000000000000000000000000000000000000000000000000000000073ffffffffffffffffffffffffffffffffffffffff163373ffffffffffffffffffffffffffffffffffffffff1614610303576040517f30cd747100000000000000000000000000000000000000000000000000000000815260040160405180910390fd5b60005b6001805490508110156103ae57600060018281548110610329576103286108db565b5b9060005260206000200160009054906101000a900473ffffffffffffffffffffffffffffffffffffffff16905060008060008373ffffffffffffffffffffffffffffffffffffffff1673ffffffffffffffffffffffffffffffffffffffff168152602001908152602001600020819055505080806103a69061090a565b915050610306565b50600067ffffffffffffffff8111156103ca576103c9610953565b5b6040519080825280602002602001820160405280156103f85781602001602082028036833780820191505090505b506001908051906020019061040e9291906105ca565b503373ffffffffffffffffffffffffffffffffffffffff166108fc479081150290604051600060405180830381858888f19350505050158015610455573d6000803e3d6000fd5b50565b6802b5e3af16b188000081565b600260009054906101000a900473ffffffffffffffffffffffffffffffffffffffff1681565b7f000000000000000000000000000000000000000000000000000000000000000081565b600181815481106104bf57600080fd5b906000526020600020016000915054906101000a900473ffffffffffffffffffffffffffffffffffffffff1681565b6000806104fa8361052a565b90506000670de0b6b3a764000085836105139190610982565b61051d9190610a0b565b9050809250505092915050565b6000808273ffffffffffffffffffffffffffffffffffffffff1663feaf968c6040518163ffffffff1660e01b815260040160a06040518083038186803b15801561057357600080fd5b505afa158015610587573d6000803e3d6000fd5b505050506040513d601f19601f820116820180604052508101906105ab9190610ac9565b5050509150506402540be400816105c29190610b44565b915050919050565b828054828255906000526020600020908101928215610643579160200282015b828111156106425782518260006101000a81548173ffffffffffffffffffffffffffffffffffffffff021916908373ffffffffffffffffffffffffffffffffffffffff160217905550916020019190600101906105ea565b5b5090506106509190610654565b5090565b5b8082111561066d576000816000905550600101610655565b5090565b6000819050919050565b61068481610671565b82525050565b600060208201905061069f600083018461067b565b92915050565b600073ffffffffffffffffffffffffffffffffffffffff82169050919050565b6000819050919050565b60006106ea6106e56106e0846106a5565b6106c5565b6106a5565b9050919050565b60006106fc826106cf565b9050919050565b600061070e826106f1565b9050919050565b61071e81610703565b82525050565b60006020820190506107396000830184610715565b92915050565b600061074a826106a5565b9050919050565b61075a8161073f565b82525050565b60006020820190506107756000830184610751565b92915050565b600080fd5b61078981610671565b811461079457600080fd5b50565b6000813590506107a681610780565b92915050565b6000602082840312156107c2576107c161077b565b5b60006107d084828501610797565b91505092915050565b600082825260208201905092915050565b7f596f75206e65656420746f207370656e64206d6f726520455448210000000000600082015250565b6000610820601b836107d9565b915061082b826107ea565b602082019050919050565b6000602082019050818103600083015261084f81610813565b9050919050565b7f4e487b7100000000000000000000000000000000000000000000000000000000600052601160045260246000fd5b600061089082610671565b915061089b83610671565b9250827fffffffffffffffffffffffffffffffffffffffffffffffffffffffffffffffff038211156108d0576108cf610856565b5b828201905092915050565b7f4e487b7100000000000000000000000000000000000000000000000000000000600052603260045260246000fd5b600061091582610671565b91507fffffffffffffffffffffffffffffffffffffffffffffffffffffffffffffffff82141561094857610947610856565b5b600182019050919050565b7f4e487b7100000000000000000000000000000000000000000000000000000000600052604160045260246000fd5b600061098d82610671565b915061099883610671565b9250817fffffffffffffffffffffffffffffffffffffffffffffffffffffffffffffffff04831182151516156109d1576109d0610856565b5b828202905092915050565b7f4e487b7100000000000000000000000000000000000000000000000000000000600052601260045260246000fd5b6000610a1682610671565b9150610a2183610671565b925082610a3157610a306109dc565b5b828204905092915050565b600069ffffffffffffffffffff82169050919050565b610a5b81610a3c565b8114610a6657600080fd5b50565b600081519050610a7881610a52565b92915050565b6000819050919050565b610a9181610a7e565b8114610a9c57600080fd5b50565b600081519050610aae81610a88565b92915050565b600081519050610ac381610780565b92915050565b600080600080600060a08688031215610ae557610ae461077b565b5b6000610af388828901610a69565b9550506020610b0488828901610a9f565b9450506040610b1588828901610ab4565b9350506060610b2688828901610ab4565b9250506080610b3788828901610a69565b9150509295509295909350565b6000610b4f82610a7e565b9150610b5a83610a7e565b9250827f7fffffffffffffffffffffffffffffffffffffffffffffffffffffffffffffff0482116000841360008413161615610b9957610b98610856565b5b817f80000000000000000000000000000000000000000000000000000000000000000583126000841260008413161615610bd657610bd5610856565b5b827f80000000000000000000000000000000000000000000000000000000000000000582126000841360008412161615610c1357610c12610856565b5b827f7fffffffffffffffffffffffffffffffffffffffffffffffffffffffffffffff0582126000841260008412161615610c5057610c4f610856565b5b82820290509291505056fea2646970667358221220e4708587a5ed37c1272fa147008faed07879dd9f048371b0df78a5363f0867ea64736f6c63430008090033",
  "devdoc": {
    "kind": "dev",
    "methods": {},
    "version": 1
  },
  "userdoc": {
    "kind": "user",
    "methods": {},
    "version": 1
  },
  "storageLayout": {
    "storage": [
      {
        "astId": 58,
        "contract": "contracts/FundMe.sol:FundMe",
        "label": "addressToAmountFunded",
        "offset": 0,
        "slot": "0",
        "type": "t_mapping(t_address,t_uint256)"
      },
      {
        "astId": 61,
        "contract": "contracts/FundMe.sol:FundMe",
        "label": "funders",
        "offset": 0,
        "slot": "1",
        "type": "t_array(t_address)dyn_storage"
      },
      {
        "astId": 73,
        "contract": "contracts/FundMe.sol:FundMe",
        "label": "priceFeed",
        "offset": 0,
        "slot": "2",
        "type": "t_contract(AggregatorV3Interface)45"
      }
    ],
    "types": {
      "t_address": {
        "encoding": "inplace",
        "label": "address",
        "numberOfBytes": "20"
      },
      "t_array(t_address)dyn_storage": {
        "base": "t_address",
        "encoding": "dynamic_array",
        "label": "address[]",
        "numberOfBytes": "32"
      },
      "t_contract(AggregatorV3Interface)45": {
        "encoding": "inplace",
        "label": "contract AggregatorV3Interface",
        "numberOfBytes": "20"
      },
      "t_mapping(t_address,t_uint256)": {
        "encoding": "mapping",
        "key": "t_address",
        "label": "mapping(address => uint256)",
        "numberOfBytes": "32",
        "value": "t_uint256"
      },
      "t_uint256": {
        "encoding": "inplace",
        "label": "uint256",
        "numberOfBytes": "32"
      }
    }
  }
}